{
  "contractName": "Medicine",
  "abi": [
    {
      "inputs": [
        {
          "internalType": "uint256",
          "name": "",
          "type": "uint256"
        }
      ],
      "name": "MedicineStock",
      "outputs": [
        {
          "internalType": "uint256",
          "name": "id",
          "type": "uint256"
        },
        {
          "internalType": "string",
          "name": "name",
          "type": "string"
        },
        {
          "internalType": "string",
          "name": "description",
          "type": "string"
        },
        {
          "internalType": "string",
          "name": "compositions",
          "type": "string"
        },
        {
          "internalType": "uint256",
          "name": "quantity",
          "type": "uint256"
        },
        {
          "internalType": "uint256",
          "name": "RMSid",
          "type": "uint256"
        },
        {
          "internalType": "uint256",
          "name": "MANid",
          "type": "uint256"
        },
        {
          "internalType": "uint256",
          "name": "DISid",
          "type": "uint256"
        },
        {
          "internalType": "uint256",
          "name": "RETid",
          "type": "uint256"
        },
        {
          "internalType": "enum STAGE",
          "name": "stage",
          "type": "uint8"
        },
        {
          "internalType": "string",
          "name": "create_date",
          "type": "string"
        },
        {
          "internalType": "string",
          "name": "update_date",
          "type": "string"
        }
      ],
      "stateMutability": "view",
      "type": "function"
    },
    {
      "inputs": [
        {
          "internalType": "uint256",
          "name": "_medicineID",
          "type": "uint256"
        },
        {
          "internalType": "contract Role",
          "name": "rawMaterialSupplier",
          "type": "address"
        },
        {
          "internalType": "address",
          "name": "_address",
          "type": "address"
        },
        {
          "internalType": "string",
          "name": "date",
          "type": "string"
        }
      ],
      "name": "RMSsupply",
      "outputs": [],
      "stateMutability": "nonpayable",
      "type": "function"
    },
    {
      "inputs": [
        {
          "internalType": "uint256",
          "name": "_medicineID",
          "type": "uint256"
        },
        {
          "internalType": "contract Role",
          "name": "manufacturer",
          "type": "address"
        },
        {
          "internalType": "address",
          "name": "_address",
          "type": "address"
        },
        {
          "internalType": "string",
          "name": "date",
          "type": "string"
        }
      ],
      "name": "Manufacturing",
      "outputs": [],
      "stateMutability": "nonpayable",
      "type": "function"
    },
    {
      "inputs": [
        {
          "internalType": "uint256",
          "name": "_medicineID",
          "type": "uint256"
        },
        {
          "internalType": "contract Role",
          "name": "distributor",
          "type": "address"
        },
        {
          "internalType": "address",
          "name": "_address",
          "type": "address"
        },
        {
          "internalType": "string",
          "name": "date",
          "type": "string"
        }
      ],
      "name": "Distribute",
      "outputs": [],
      "stateMutability": "nonpayable",
      "type": "function"
    },
    {
      "inputs": [
        {
          "internalType": "uint256",
          "name": "_medicineID",
          "type": "uint256"
        },
        {
          "internalType": "contract Role",
          "name": "retailer",
          "type": "address"
        },
        {
          "internalType": "address",
          "name": "_address",
          "type": "address"
        },
        {
          "internalType": "string",
          "name": "date",
          "type": "string"
        }
      ],
      "name": "Retail",
      "outputs": [],
      "stateMutability": "nonpayable",
      "type": "function"
    },
    {
      "inputs": [
        {
          "internalType": "uint256",
          "name": "_medicineID",
          "type": "uint256"
        },
        {
          "internalType": "contract Role",
          "name": "retailer",
          "type": "address"
        },
        {
          "internalType": "address",
          "name": "_address",
          "type": "address"
        },
        {
          "internalType": "string",
          "name": "date",
          "type": "string"
        }
      ],
      "name": "sold",
      "outputs": [],
      "stateMutability": "nonpayable",
      "type": "function"
    },
    {
      "inputs": [
        {
          "internalType": "string",
          "name": "_name",
          "type": "string"
        },
        {
          "internalType": "string",
          "name": "_description",
          "type": "string"
        },
        {
          "internalType": "string",
          "name": "_composition",
          "type": "string"
        },
        {
          "internalType": "uint256",
          "name": "_quantity",
          "type": "uint256"
        },
        {
          "internalType": "string",
          "name": "date",
          "type": "string"
        },
        {
          "internalType": "contract Role",
          "name": "rawMaterialSupplier",
          "type": "address"
        },
        {
          "internalType": "contract Role",
          "name": "manufacturer",
          "type": "address"
        },
        {
          "internalType": "contract Role",
          "name": "distributor",
          "type": "address"
        },
        {
          "internalType": "contract Role",
          "name": "retailer",
          "type": "address"
        }
      ],
      "name": "add",
      "outputs": [],
      "stateMutability": "nonpayable",
      "type": "function"
    },
    {
      "inputs": [
        {
          "internalType": "uint256",
          "name": "_medicineID",
          "type": "uint256"
        }
      ],
      "name": "show",
      "outputs": [
        {
          "internalType": "string",
          "name": "",
          "type": "string"
        }
      ],
      "stateMutability": "view",
      "type": "function"
    },
    {
      "inputs": [],
      "name": "getLen",
      "outputs": [
        {
          "internalType": "uint256",
          "name": "",
          "type": "uint256"
        }
      ],
      "stateMutability": "view",
      "type": "function"
    },
    {
      "inputs": [
        {
          "internalType": "uint256",
          "name": "_id",
          "type": "uint256"
        }
      ],
      "name": "getElement",
      "outputs": [
        {
          "components": [
            {
              "internalType": "uint256",
              "name": "id",
              "type": "uint256"
            },
            {
              "internalType": "string",
              "name": "name",
              "type": "string"
            },
            {
              "internalType": "string",
              "name": "description",
              "type": "string"
            },
            {
              "internalType": "string",
              "name": "compositions",
              "type": "string"
            },
            {
              "internalType": "uint256",
              "name": "quantity",
              "type": "uint256"
            },
            {
              "internalType": "uint256",
              "name": "RMSid",
              "type": "uint256"
            },
            {
              "internalType": "uint256",
              "name": "MANid",
              "type": "uint256"
            },
            {
              "internalType": "uint256",
              "name": "DISid",
              "type": "uint256"
            },
            {
              "internalType": "uint256",
              "name": "RETid",
              "type": "uint256"
            },
            {
              "internalType": "enum STAGE",
              "name": "stage",
              "type": "uint8"
            },
            {
              "internalType": "string",
              "name": "create_date",
              "type": "string"
            },
            {
              "internalType": "string",
              "name": "update_date",
              "type": "string"
            }
          ],
          "internalType": "struct medicine",
          "name": "",
          "type": "tuple"
        }
      ],
      "stateMutability": "view",
      "type": "function"
    }
  ],
  "bytecode": "0x60806040525f600155348015610013575f80fd5b506122b7806100215f395ff3fe608060405234801561000f575f80fd5b506004361061009c575f3560e01c8063888ddcd411610064578063888ddcd4146101425780638b514ed71461015e578063dc6b88b61461018e578063e696b4d1146101aa578063eb1a06b5146101c65761009c565b8063310b5d76146100a057806336240fd5146100bc5780633a7d22bc146100d85780634a90be571461010857806359af91e914610126575b5f80fd5b6100ba60048036038101906100b591906118b9565b610201565b005b6100d660048036038101906100d19190611a17565b610555565b005b6100f260048036038101906100ed9190611a97565b6106bd565b6040516100ff9190611cdb565b60405180910390f35b610110610a2d565b60405161011d9190611d0a565b60405180910390f35b610140600480360381019061013b9190611a17565b610a36565b005b61015c60048036038101906101579190611a17565b610b9f565b005b61017860048036038101906101739190611a97565b610d08565b6040516101859190611d6b565b60405180910390f35b6101a860048036038101906101a39190611a17565b611085565b005b6101c460048036038101906101bf9190611a17565b6111f4565b005b6101e060048036038101906101db9190611a97565b61135d565b6040516101f89c9b9a99989796959493929190611d9a565b60405180910390f35b5f8473ffffffffffffffffffffffffffffffffffffffff16634a90be576040518163ffffffff1660e01b8152600401602060405180830381865afa15801561024b573d5f803e3d5ffd5b505050506040513d601f19601f8201168201806040525081019061026f9190611e89565b1180156102e757505f8373ffffffffffffffffffffffffffffffffffffffff16634a90be576040518163ffffffff1660e01b8152600401602060405180830381865afa1580156102c1573d5f803e3d5ffd5b505050506040513d601f19601f820116820180604052508101906102e59190611e89565b115b801561035e57505f8273ffffffffffffffffffffffffffffffffffffffff16634a90be576040518163ffffffff1660e01b8152600401602060405180830381865afa158015610338573d5f803e3d5ffd5b505050506040513d601f19601f8201168201806040525081019061035c9190611e89565b115b80156103d557505f8173ffffffffffffffffffffffffffffffffffffffff16634a90be576040518163ffffffff1660e01b8152600401602060405180830381865afa1580156103af573d5f803e3d5ffd5b505050506040513d601f19601f820116820180604052508101906103d39190611e89565b115b6103dd575f80fd5b60015f8154809291906103ef90611ee1565b919050555060405180610180016040528060015481526020018a81526020018981526020018881526020018781526020015f81526020015f81526020015f81526020015f81526020015f600581111561044b5761044a611b4b565b5b8152602001868152602001868152505f8060015481526020019081526020015f205f820151815f015560208201518160010190816104899190612122565b50604082015181600201908161049f9190612122565b5060608201518160030190816104b59190612122565b506080820151816004015560a0820151816005015560c0820151816006015560e082015181600701556101008201518160080155610120820151816009015f6101000a81548160ff0219169083600581111561051457610513611b4b565b5b021790555061014082015181600a01908161052f9190612122565b5061016082015181600b0190816105469190612122565b50905050505050505050505050565b5f8411801561056657506001548411155b61056e575f80fd5b5f8373ffffffffffffffffffffffffffffffffffffffff166351cdac6b846040518263ffffffff1660e01b81526004016105a89190612200565b602060405180830381865afa1580156105c3573d5f803e3d5ffd5b505050506040513d601f19601f820116820180604052508101906105e79190611e89565b90505f81116105f4575f80fd5b5f600581111561060757610606611b4b565b5b5f808781526020019081526020015f206009015f9054906101000a900460ff16600581111561063957610638611b4b565b5b14610642575f80fd5b805f808781526020019081526020015f206005018190555060015f808781526020019081526020015f206009015f6101000a81548160ff021916908360058111156106905761068f611b4b565b5b0217905550815f808781526020019081526020015f20600b0190816106b59190612122565b505050505050565b6106c5611662565b5f808381526020019081526020015f20604051806101800160405290815f82015481526020016001820180546106fa90611f55565b80601f016020809104026020016040519081016040528092919081815260200182805461072690611f55565b80156107715780601f1061074857610100808354040283529160200191610771565b820191905f5260205f20905b81548152906001019060200180831161075457829003601f168201915b5050505050815260200160028201805461078a90611f55565b80601f01602080910402602001604051908101604052809291908181526020018280546107b690611f55565b80156108015780601f106107d857610100808354040283529160200191610801565b820191905f5260205f20905b8154815290600101906020018083116107e457829003601f168201915b5050505050815260200160038201805461081a90611f55565b80601f016020809104026020016040519081016040528092919081815260200182805461084690611f55565b80156108915780601f1061086857610100808354040283529160200191610891565b820191905f5260205f20905b81548152906001019060200180831161087457829003601f168201915b505050505081526020016004820154815260200160058201548152602001600682015481526020016007820154815260200160088201548152602001600982015f9054906101000a900460ff1660058111156108f0576108ef611b4b565b5b600581111561090257610901611b4b565b5b8152602001600a8201805461091690611f55565b80601f016020809104026020016040519081016040528092919081815260200182805461094290611f55565b801561098d5780601f106109645761010080835404028352916020019161098d565b820191905f5260205f20905b81548152906001019060200180831161097057829003601f168201915b50505050508152602001600b820180546109a690611f55565b80601f01602080910402602001604051908101604052809291908181526020018280546109d290611f55565b8015610a1d5780601f106109f457610100808354040283529160200191610a1d565b820191905f5260205f20905b815481529060010190602001808311610a0057829003601f168201915b5050505050815250509050919050565b5f600154905090565b5f84118015610a4757506001548411155b610a4f575f80fd5b5f8373ffffffffffffffffffffffffffffffffffffffff166351cdac6b846040518263ffffffff1660e01b8152600401610a899190612200565b602060405180830381865afa158015610aa4573d5f803e3d5ffd5b505050506040513d601f19601f82011682018060405250810190610ac89190611e89565b90505f8111610ad5575f80fd5b60016005811115610ae957610ae8611b4b565b5b5f808781526020019081526020015f206009015f9054906101000a900460ff166005811115610b1b57610b1a611b4b565b5b14610b24575f80fd5b805f808781526020019081526020015f206006018190555060025f808781526020019081526020015f206009015f6101000a81548160ff02191690836005811115610b7257610b71611b4b565b5b0217905550815f808781526020019081526020015f20600b019081610b979190612122565b505050505050565b5f84118015610bb057506001548411155b610bb8575f80fd5b5f8373ffffffffffffffffffffffffffffffffffffffff166351cdac6b846040518263ffffffff1660e01b8152600401610bf29190612200565b602060405180830381865afa158015610c0d573d5f803e3d5ffd5b505050506040513d601f19601f82011682018060405250810190610c319190611e89565b90505f8111610c3e575f80fd5b60036005811115610c5257610c51611b4b565b5b5f808781526020019081526020015f206009015f9054906101000a900460ff166005811115610c8457610c83611b4b565b5b14610c8d575f80fd5b805f808781526020019081526020015f206008018190555060045f808781526020019081526020015f206009015f6101000a81548160ff02191690836005811115610cdb57610cda611b4b565b5b0217905550815f808781526020019081526020015f20600b019081610d009190612122565b505050505050565b60605f60015411610d17575f80fd5b5f6005811115610d2a57610d29611b4b565b5b5f808481526020019081526020015f206009015f9054906101000a900460ff166005811115610d5c57610d5b611b4b565b5b03610d9e576040518060400160405280601081526020017f4d65646963696e65204f726465726564000000000000000000000000000000008152509050611080565b60016005811115610db257610db1611b4b565b5b5f808481526020019081526020015f206009015f9054906101000a900460ff166005811115610de457610de3611b4b565b5b03610e26576040518060400160405280601981526020017f526177204d6174657269616c20537570706c79205374616765000000000000008152509050611080565b60026005811115610e3a57610e39611b4b565b5b5f808481526020019081526020015f206009015f9054906101000a900460ff166005811115610e6c57610e6b611b4b565b5b03610eae576040518060400160405280601381526020017f4d616e75666163747572696e67205374616765000000000000000000000000008152509050611080565b60036005811115610ec257610ec1611b4b565b5b5f808481526020019081526020015f206009015f9054906101000a900460ff166005811115610ef457610ef3611b4b565b5b03610f36576040518060400160405280601281526020017f446973747269627574696f6e20537461676500000000000000000000000000008152509050611080565b60046005811115610f4a57610f49611b4b565b5b5f808481526020019081526020015f206009015f9054906101000a900460ff166005811115610f7c57610f7b611b4b565b5b03610fbe576040518060400160405280600c81526020017f52657461696c20537461676500000000000000000000000000000000000000008152509050611080565b600580811115610fd157610fd0611b4b565b5b5f808481526020019081526020015f206009015f9054906101000a900460ff16600581111561100357611002611b4b565b5b03611045576040518060400160405280600d81526020017f4d65646963696e6520536f6c64000000000000000000000000000000000000008152509050611080565b6040517f08c379a000000000000000000000000000000000000000000000000000000000815260040161107790612263565b60405180910390fd5b919050565b5f8411801561109657506001548411155b61109e575f80fd5b5f8373ffffffffffffffffffffffffffffffffffffffff166351cdac6b846040518263ffffffff1660e01b81526004016110d89190612200565b602060405180830381865afa1580156110f3573d5f803e3d5ffd5b505050506040513d601f19601f820116820180604052508101906111179190611e89565b90505f8111611124575f80fd5b5f808681526020019081526020015f20600801548114611142575f80fd5b6004600581111561115657611155611b4b565b5b5f808781526020019081526020015f206009015f9054906101000a900460ff16600581111561118857611187611b4b565b5b14611191575f80fd5b60055f808781526020019081526020015f206009015f6101000a81548160ff021916908360058111156111c7576111c6611b4b565b5b0217905550815f808781526020019081526020015f20600b0190816111ec9190612122565b505050505050565b5f8411801561120557506001548411155b61120d575f80fd5b5f8373ffffffffffffffffffffffffffffffffffffffff166351cdac6b846040518263ffffffff1660e01b81526004016112479190612200565b602060405180830381865afa158015611262573d5f803e3d5ffd5b505050506040513d601f19601f820116820180604052508101906112869190611e89565b90505f8111611293575f80fd5b600260058111156112a7576112a6611b4b565b5b5f808781526020019081526020015f206009015f9054906101000a900460ff1660058111156112d9576112d8611b4b565b5b146112e2575f80fd5b805f808781526020019081526020015f206007018190555060035f808781526020019081526020015f206009015f6101000a81548160ff021916908360058111156113305761132f611b4b565b5b0217905550815f808781526020019081526020015f20600b0190816113559190612122565b505050505050565b5f602052805f5260405f205f91509050805f01549080600101805461138190611f55565b80601f01602080910402602001604051908101604052809291908181526020018280546113ad90611f55565b80156113f85780601f106113cf576101008083540402835291602001916113f8565b820191905f5260205f20905b8154815290600101906020018083116113db57829003601f168201915b50505050509080600201805461140d90611f55565b80601f016020809104026020016040519081016040528092919081815260200182805461143990611f55565b80156114845780601f1061145b57610100808354040283529160200191611484565b820191905f5260205f20905b81548152906001019060200180831161146757829003601f168201915b50505050509080600301805461149990611f55565b80601f01602080910402602001604051908101604052809291908181526020018280546114c590611f55565b80156115105780601f106114e757610100808354040283529160200191611510565b820191905f5260205f20905b8154815290600101906020018083116114f357829003601f168201915b505050505090806004015490806005015490806006015490806007015490806008015490806009015f9054906101000a900460ff169080600a01805461155590611f55565b80601f016020809104026020016040519081016040528092919081815260200182805461158190611f55565b80156115cc5780601f106115a3576101008083540402835291602001916115cc565b820191905f5260205f20905b8154815290600101906020018083116115af57829003601f168201915b50505050509080600b0180546115e190611f55565b80601f016020809104026020016040519081016040528092919081815260200182805461160d90611f55565b80156116585780601f1061162f57610100808354040283529160200191611658565b820191905f5260205f20905b81548152906001019060200180831161163b57829003601f168201915b505050505090508c565b6040518061018001604052805f81526020016060815260200160608152602001606081526020015f81526020015f81526020015f81526020015f81526020015f81526020015f60058111156116ba576116b9611b4b565b5b815260200160608152602001606081525090565b5f604051905090565b5f80fd5b5f80fd5b5f80fd5b5f80fd5b5f601f19601f8301169050919050565b7f4e487b71000000000000000000000000000000000000000000000000000000005f52604160045260245ffd5b61172d826116e7565b810181811067ffffffffffffffff8211171561174c5761174b6116f7565b5b80604052505050565b5f61175e6116ce565b905061176a8282611724565b919050565b5f67ffffffffffffffff821115611789576117886116f7565b5b611792826116e7565b9050602081019050919050565b828183375f83830152505050565b5f6117bf6117ba8461176f565b611755565b9050828152602081018484840111156117db576117da6116e3565b5b6117e684828561179f565b509392505050565b5f82601f830112611802576118016116df565b5b81356118128482602086016117ad565b91505092915050565b5f819050919050565b61182d8161181b565b8114611837575f80fd5b50565b5f8135905061184881611824565b92915050565b5f73ffffffffffffffffffffffffffffffffffffffff82169050919050565b5f6118778261184e565b9050919050565b5f6118888261186d565b9050919050565b6118988161187e565b81146118a2575f80fd5b50565b5f813590506118b38161188f565b92915050565b5f805f805f805f805f6101208a8c0312156118d7576118d66116d7565b5b5f8a013567ffffffffffffffff8111156118f4576118f36116db565b5b6119008c828d016117ee565b99505060208a013567ffffffffffffffff811115611921576119206116db565b5b61192d8c828d016117ee565b98505060408a013567ffffffffffffffff81111561194e5761194d6116db565b5b61195a8c828d016117ee565b975050606061196b8c828d0161183a565b96505060808a013567ffffffffffffffff81111561198c5761198b6116db565b5b6119988c828d016117ee565b95505060a06119a98c828d016118a5565b94505060c06119ba8c828d016118a5565b93505060e06119cb8c828d016118a5565b9250506101006119dd8c828d016118a5565b9150509295985092959850929598565b6119f68161186d565b8114611a00575f80fd5b50565b5f81359050611a11816119ed565b92915050565b5f805f8060808587031215611a2f57611a2e6116d7565b5b5f611a3c8782880161183a565b9450506020611a4d878288016118a5565b9350506040611a5e87828801611a03565b925050606085013567ffffffffffffffff811115611a7f57611a7e6116db565b5b611a8b878288016117ee565b91505092959194509250565b5f60208284031215611aac57611aab6116d7565b5b5f611ab98482850161183a565b91505092915050565b611acb8161181b565b82525050565b5f81519050919050565b5f82825260208201905092915050565b5f5b83811015611b08578082015181840152602081019050611aed565b5f8484015250505050565b5f611b1d82611ad1565b611b278185611adb565b9350611b37818560208601611aeb565b611b40816116e7565b840191505092915050565b7f4e487b71000000000000000000000000000000000000000000000000000000005f52602160045260245ffd5b60068110611b8957611b88611b4b565b5b50565b5f819050611b9982611b78565b919050565b5f611ba882611b8c565b9050919050565b611bb881611b9e565b82525050565b5f61018083015f830151611bd45f860182611ac2565b5060208301518482036020860152611bec8282611b13565b91505060408301518482036040860152611c068282611b13565b91505060608301518482036060860152611c208282611b13565b9150506080830151611c356080860182611ac2565b5060a0830151611c4860a0860182611ac2565b5060c0830151611c5b60c0860182611ac2565b5060e0830151611c6e60e0860182611ac2565b50610100830151611c83610100860182611ac2565b50610120830151611c98610120860182611baf565b50610140830151848203610140860152611cb28282611b13565b915050610160830151848203610160860152611cce8282611b13565b9150508091505092915050565b5f6020820190508181035f830152611cf38184611bbe565b905092915050565b611d048161181b565b82525050565b5f602082019050611d1d5f830184611cfb565b92915050565b5f82825260208201905092915050565b5f611d3d82611ad1565b611d478185611d23565b9350611d57818560208601611aeb565b611d60816116e7565b840191505092915050565b5f6020820190508181035f830152611d838184611d33565b905092915050565b611d9481611b9e565b82525050565b5f61018082019050611dae5f83018f611cfb565b8181036020830152611dc0818e611d33565b90508181036040830152611dd4818d611d33565b90508181036060830152611de8818c611d33565b9050611df7608083018b611cfb565b611e0460a083018a611cfb565b611e1160c0830189611cfb565b611e1e60e0830188611cfb565b611e2c610100830187611cfb565b611e3a610120830186611d8b565b818103610140830152611e4d8185611d33565b9050818103610160830152611e628184611d33565b90509d9c50505050505050505050505050565b5f81519050611e8381611824565b92915050565b5f60208284031215611e9e57611e9d6116d7565b5b5f611eab84828501611e75565b91505092915050565b7f4e487b71000000000000000000000000000000000000000000000000000000005f52601160045260245ffd5b5f611eeb8261181b565b91507fffffffffffffffffffffffffffffffffffffffffffffffffffffffffffffffff8203611f1d57611f1c611eb4565b5b600182019050919050565b7f4e487b71000000000000000000000000000000000000000000000000000000005f52602260045260245ffd5b5f6002820490506001821680611f6c57607f821691505b602082108103611f7f57611f7e611f28565b5b50919050565b5f819050815f5260205f209050919050565b5f6020601f8301049050919050565b5f82821b905092915050565b5f60088302611fe17fffffffffffffffffffffffffffffffffffffffffffffffffffffffffffffffff82611fa6565b611feb8683611fa6565b95508019841693508086168417925050509392505050565b5f819050919050565b5f61202661202161201c8461181b565b612003565b61181b565b9050919050565b5f819050919050565b61203f8361200c565b61205361204b8261202d565b848454611fb2565b825550505050565b5f90565b61206761205b565b612072818484612036565b505050565b5b818110156120955761208a5f8261205f565b600181019050612078565b5050565b601f8211156120da576120ab81611f85565b6120b484611f97565b810160208510156120c3578190505b6120d76120cf85611f97565b830182612077565b50505b505050565b5f82821c905092915050565b5f6120fa5f19846008026120df565b1980831691505092915050565b5f61211283836120eb565b9150826002028217905092915050565b61212b82611ad1565b67ffffffffffffffff811115612144576121436116f7565b5b61214e8254611f55565b612159828285612099565b5f60209050601f83116001811461218a575f8415612178578287015190505b6121828582612107565b8655506121e9565b601f19841661219886611f85565b5f5b828110156121bf5784890151825560018201915060208501945060208101905061219a565b868310156121dc57848901516121d8601f8916826120eb565b8355505b6001600288020188555050505b505050505050565b6121fa8161186d565b82525050565b5f6020820190506122135f8301846121f1565b92915050565b7f496e76616c6964207374616765000000000000000000000000000000000000005f82015250565b5f61224d600d83611d23565b915061225882612219565b602082019050919050565b5f6020820190508181035f83015261227a81612241565b905091905056fea2646970667358221220256b4d23b78b7b2638db98812891873f57583c9967d83bb0b7a4e0a4a10f90a464736f6c63430008150033",
  "immutableReferences": {},
  "source": "// SPDX-License-Identifier: MIT \r\npragma solidity >=0.4.22 <0.9.0;\r\n\r\nimport './Stage.sol';\r\nimport '../roles/Role.sol';\r\n\r\n//To store information about the medicine\r\nstruct medicine {\r\n    uint256 id; //unique medicine id\r\n    string name; //name of the medicine\r\n    string description; //about medicine\r\n    string compositions; //about compostion\r\n    uint256 quantity; //medicine quantity\r\n    uint256 RMSid; //id of the Raw Material supplier for this particular medicine\r\n    uint256 MANid; //id of the Manufacturer for this particular medicine\r\n    uint256 DISid; //id of the distributor for this particular medicine\r\n    uint256 RETid; //id of the retailer for this particular medicine\r\n    STAGE stage; //current medicine stage\r\n    \r\n    string create_date;\r\n    string update_date;\r\n    \r\n}\r\n    \r\n\r\ncontract Medicine {\r\n\r\n    \r\n    mapping(uint256 => medicine) public MedicineStock;\r\n    uint256 private len = 0;\r\n\r\n    //To supply raw materials from RMS supplier to the manufacturer\r\n    function RMSsupply(uint256 _medicineID, Role rawMaterialSupplier, address _address, string memory date ) public {\r\n        require(_medicineID > 0 && _medicineID <= len);\r\n        uint256 _id = rawMaterialSupplier.find(_address);\r\n        require(_id > 0);\r\n        require(MedicineStock[_medicineID].stage == STAGE.Init);\r\n        MedicineStock[_medicineID].RMSid = _id;\r\n        MedicineStock[_medicineID].stage = STAGE.RawMaterialSupply;\r\n        MedicineStock[_medicineID].update_date = date;\r\n    }\r\n\r\n    \r\n\r\n    //To manufacture medicine\r\n    function Manufacturing(uint256 _medicineID,  Role manufacturer, address _address, string memory date ) public {\r\n        require(_medicineID > 0 && _medicineID <= len);\r\n        uint256 _id = manufacturer.find(_address);\r\n        require(_id > 0);\r\n        require(MedicineStock[_medicineID].stage == STAGE.RawMaterialSupply);\r\n        MedicineStock[_medicineID].MANid = _id;\r\n        MedicineStock[_medicineID].stage = STAGE.Manufacture;\r\n        MedicineStock[_medicineID].update_date = date;\r\n    }\r\n\r\n   \r\n    //To supply medicines from Manufacturer to distributor\r\n    function Distribute(uint256 _medicineID,  Role distributor, address _address, string memory date) public {\r\n        require(_medicineID > 0 && _medicineID <= len);\r\n        uint256 _id = distributor.find(_address);\r\n        require(_id > 0);\r\n        require(MedicineStock[_medicineID].stage == STAGE.Manufacture);\r\n        MedicineStock[_medicineID].DISid = _id;\r\n        MedicineStock[_medicineID].stage = STAGE.Distribution;\r\n        MedicineStock[_medicineID].update_date = date;\r\n    }\r\n\r\n    \r\n\r\n    //To supply medicines from distributor to retailer\r\n    function Retail(uint256 _medicineID,  Role retailer, address _address, string memory date) public {\r\n        require(_medicineID > 0 && _medicineID <= len);\r\n        uint256 _id = retailer.find(_address);\r\n        require(_id > 0);\r\n        require(MedicineStock[_medicineID].stage == STAGE.Distribution);\r\n        MedicineStock[_medicineID].RETid = _id;\r\n        MedicineStock[_medicineID].stage = STAGE.Retail;\r\n        MedicineStock[_medicineID].update_date = date;\r\n    }\r\n\r\n    \r\n    //To sell medicines from retailer to consumer\r\n    function sold(uint256 _medicineID,  Role retailer, address _address, string memory date) public {\r\n        require(_medicineID > 0 && _medicineID <= len);\r\n        uint256 _id = retailer.find(_address);\r\n        require(_id > 0);\r\n        require(_id == MedicineStock[_medicineID].RETid); //Only correct retailer can mark medicine as sold\r\n        require(MedicineStock[_medicineID].stage == STAGE.Retail);\r\n        MedicineStock[_medicineID].stage = STAGE.sold;\r\n        MedicineStock[_medicineID].update_date = date;\r\n    }\r\n\r\n\r\n    // To add new medicines to the stock\r\n    function add(\r\n        string memory _name,\r\n        string memory _description,\r\n        string memory _composition,\r\n        uint256 _quantity,\r\n        string memory date,\r\n        Role rawMaterialSupplier,\r\n        Role manufacturer,\r\n        Role distributor,\r\n        Role retailer\r\n    ) public {\r\n        require((rawMaterialSupplier.getLen() > 0) \r\n        && (manufacturer.getLen() > 0) \r\n        && (distributor.getLen() > 0) \r\n        && (retailer.getLen() > 0));\r\n        len++;\r\n        \r\n        MedicineStock[len] = medicine(\r\n            len,\r\n            _name, // set the name of medicine\r\n            _description, // set the description of the medicine\r\n            _composition, // set the composition of the medicine\r\n            _quantity, // Set the number of quantities\r\n            0,\r\n            0,\r\n            0,\r\n            0,\r\n            STAGE.Init,\r\n            date,\r\n            date\r\n        );\r\n    }\r\n\r\n    \r\n    function show(uint256 _medicineID) public view returns (string memory) {\r\n        require(len > 0);\r\n        if (MedicineStock[_medicineID].stage == STAGE.Init)\r\n            return \"Medicine Ordered\";\r\n        else if (MedicineStock[_medicineID].stage == STAGE.RawMaterialSupply)\r\n            return \"Raw Material Supply Stage\";\r\n        else if (MedicineStock[_medicineID].stage == STAGE.Manufacture)\r\n            return \"Manufacturing Stage\";\r\n        else if (MedicineStock[_medicineID].stage == STAGE.Distribution)\r\n            return \"Distribution Stage\";\r\n        else if (MedicineStock[_medicineID].stage == STAGE.Retail)\r\n            return \"Retail Stage\";\r\n        else if (MedicineStock[_medicineID].stage == STAGE.sold)\r\n            return \"Medicine Sold\";\r\n        else\r\n            revert(\"Invalid stage\");\r\n    }\r\n         \r\n    function getLen() public view returns (uint256) {\r\n        return len;\r\n    }\r\n\r\n    function getElement(uint256 _id) public view returns (medicine memory) {\r\n        return MedicineStock[_id];\r\n    }\r\n\r\n\r\n    \r\n      \r\n        \r\n\r\n}",
  "sourcePath": "D:\\Blockchain_project\\PharmaceuticalSupplyChain\\contracts\\core\\Medicine.sol",
  "compiler": {
    "name": "solc",
    "version": "0.8.21+commit.d9974bed.Emscripten.clang"
  },
  "schemaVersion": "3.4.16",
  "updatedAt": "2023-12-03T11:01:38.591Z",
  "devdoc": {
    "kind": "dev",
    "methods": {},
    "version": 1
  },
  "userdoc": {
    "kind": "user",
    "methods": {},
    "version": 1
  }
}