{
  "contractName": "Role",
  "abi": [
    {
      "inputs": [
        {
          "internalType": "address",
          "name": "_address",
          "type": "address"
        }
      ],
      "name": "find",
      "outputs": [
        {
          "internalType": "uint256",
          "name": "",
          "type": "uint256"
        }
      ],
      "stateMutability": "view",
      "type": "function"
    },
    {
      "inputs": [
        {
          "internalType": "address",
          "name": "_address",
          "type": "address"
        },
        {
          "internalType": "string",
          "name": "_name",
          "type": "string"
        },
        {
          "internalType": "string",
          "name": "_place",
          "type": "string"
        }
      ],
      "name": "add",
      "outputs": [],
      "stateMutability": "nonpayable",
      "type": "function"
    },
    {
      "inputs": [],
      "name": "getLen",
      "outputs": [
        {
          "internalType": "uint256",
          "name": "",
          "type": "uint256"
        }
      ],
      "stateMutability": "view",
      "type": "function"
    },
    {
      "inputs": [
        {
          "internalType": "uint256",
          "name": "_id",
          "type": "uint256"
        }
      ],
      "name": "getElement",
      "outputs": [
        {
          "components": [
            {
              "internalType": "address",
              "name": "addr",
              "type": "address"
            },
            {
              "internalType": "uint256",
              "name": "id",
              "type": "uint256"
            },
            {
              "internalType": "string",
              "name": "name",
              "type": "string"
            },
            {
              "internalType": "string",
              "name": "place",
              "type": "string"
            }
          ],
          "internalType": "struct Rollable",
          "name": "",
          "type": "tuple"
        }
      ],
      "stateMutability": "view",
      "type": "function"
    }
  ],
  "bytecode": "0x60806040525f600155348015610013575f80fd5b50610be5806100215f395ff3fe608060405234801561000f575f80fd5b506004361061004a575f3560e01c80633a7d22bc1461004e57806346bc7fd91461007e5780634a90be571461009a57806351cdac6b146100b8575b5f80fd5b610068600480360381019061006391906104b7565b6100e8565b6040516100759190610621565b60405180910390f35b61009860048036038101906100939190610797565b610290565b005b6100a2610374565b6040516100af919061082e565b60405180910390f35b6100d260048036038101906100cd9190610847565b61037d565b6040516100df919061082e565b60405180910390f35b6100f0610437565b5f808381526020019081526020015f206040518060800160405290815f82015f9054906101000a900473ffffffffffffffffffffffffffffffffffffffff1673ffffffffffffffffffffffffffffffffffffffff1673ffffffffffffffffffffffffffffffffffffffff168152602001600182015481526020016002820180546101799061089f565b80601f01602080910402602001604051908101604052809291908181526020018280546101a59061089f565b80156101f05780601f106101c7576101008083540402835291602001916101f0565b820191905f5260205f20905b8154815290600101906020018083116101d357829003601f168201915b505050505081526020016003820180546102099061089f565b80601f01602080910402602001604051908101604052809291908181526020018280546102359061089f565b80156102805780601f1061025757610100808354040283529160200191610280565b820191905f5260205f20905b81548152906001019060200180831161026357829003601f168201915b5050505050815250509050919050565b60015f8154809291906102a2906108fc565b919050555060405180608001604052808473ffffffffffffffffffffffffffffffffffffffff1681526020016001548152602001838152602001828152505f8060015481526020019081526020015f205f820151815f015f6101000a81548173ffffffffffffffffffffffffffffffffffffffff021916908373ffffffffffffffffffffffffffffffffffffffff1602179055506020820151816001015560408201518160020190816103559190610ae0565b50606082015181600301908161036b9190610ae0565b50905050505050565b5f600154905090565b5f806001541161038b575f80fd5b5f600190505b600154811161042d578273ffffffffffffffffffffffffffffffffffffffff165f808381526020019081526020015f205f015f9054906101000a900473ffffffffffffffffffffffffffffffffffffffff1673ffffffffffffffffffffffffffffffffffffffff160361041a575f808281526020019081526020015f2060010154915050610432565b8080610425906108fc565b915050610391565b505f90505b919050565b60405180608001604052805f73ffffffffffffffffffffffffffffffffffffffff1681526020015f815260200160608152602001606081525090565b5f604051905090565b5f80fd5b5f80fd5b5f819050919050565b61049681610484565b81146104a0575f80fd5b50565b5f813590506104b18161048d565b92915050565b5f602082840312156104cc576104cb61047c565b5b5f6104d9848285016104a3565b91505092915050565b5f73ffffffffffffffffffffffffffffffffffffffff82169050919050565b5f61050b826104e2565b9050919050565b61051b81610501565b82525050565b61052a81610484565b82525050565b5f81519050919050565b5f82825260208201905092915050565b5f5b8381101561056757808201518184015260208101905061054c565b5f8484015250505050565b5f601f19601f8301169050919050565b5f61058c82610530565b610596818561053a565b93506105a681856020860161054a565b6105af81610572565b840191505092915050565b5f608083015f8301516105cf5f860182610512565b5060208301516105e26020860182610521565b50604083015184820360408601526105fa8282610582565b915050606083015184820360608601526106148282610582565b9150508091505092915050565b5f6020820190508181035f83015261063981846105ba565b905092915050565b61064a81610501565b8114610654575f80fd5b50565b5f8135905061066581610641565b92915050565b5f80fd5b5f80fd5b7f4e487b71000000000000000000000000000000000000000000000000000000005f52604160045260245ffd5b6106a982610572565b810181811067ffffffffffffffff821117156106c8576106c7610673565b5b80604052505050565b5f6106da610473565b90506106e682826106a0565b919050565b5f67ffffffffffffffff82111561070557610704610673565b5b61070e82610572565b9050602081019050919050565b828183375f83830152505050565b5f61073b610736846106eb565b6106d1565b9050828152602081018484840111156107575761075661066f565b5b61076284828561071b565b509392505050565b5f82601f83011261077e5761077d61066b565b5b813561078e848260208601610729565b91505092915050565b5f805f606084860312156107ae576107ad61047c565b5b5f6107bb86828701610657565b935050602084013567ffffffffffffffff8111156107dc576107db610480565b5b6107e88682870161076a565b925050604084013567ffffffffffffffff81111561080957610808610480565b5b6108158682870161076a565b9150509250925092565b61082881610484565b82525050565b5f6020820190506108415f83018461081f565b92915050565b5f6020828403121561085c5761085b61047c565b5b5f61086984828501610657565b91505092915050565b7f4e487b71000000000000000000000000000000000000000000000000000000005f52602260045260245ffd5b5f60028204905060018216806108b657607f821691505b6020821081036108c9576108c8610872565b5b50919050565b7f4e487b71000000000000000000000000000000000000000000000000000000005f52601160045260245ffd5b5f61090682610484565b91507fffffffffffffffffffffffffffffffffffffffffffffffffffffffffffffffff8203610938576109376108cf565b5b600182019050919050565b5f819050815f5260205f209050919050565b5f6020601f8301049050919050565b5f82821b905092915050565b5f6008830261099f7fffffffffffffffffffffffffffffffffffffffffffffffffffffffffffffffff82610964565b6109a98683610964565b95508019841693508086168417925050509392505050565b5f819050919050565b5f6109e46109df6109da84610484565b6109c1565b610484565b9050919050565b5f819050919050565b6109fd836109ca565b610a11610a09826109eb565b848454610970565b825550505050565b5f90565b610a25610a19565b610a308184846109f4565b505050565b5b81811015610a5357610a485f82610a1d565b600181019050610a36565b5050565b601f821115610a9857610a6981610943565b610a7284610955565b81016020851015610a81578190505b610a95610a8d85610955565b830182610a35565b50505b505050565b5f82821c905092915050565b5f610ab85f1984600802610a9d565b1980831691505092915050565b5f610ad08383610aa9565b9150826002028217905092915050565b610ae982610530565b67ffffffffffffffff811115610b0257610b01610673565b5b610b0c825461089f565b610b17828285610a57565b5f60209050601f831160018114610b48575f8415610b36578287015190505b610b408582610ac5565b865550610ba7565b601f198416610b5686610943565b5f5b82811015610b7d57848901518255600182019150602085019450602081019050610b58565b86831015610b9a5784890151610b96601f891682610aa9565b8355505b6001600288020188555050505b50505050505056fea264697066735822122058848d0f59f750368a9e3b80e2d96123e37ba5a42eada2828a3884b56cc2554364736f6c63430008150033",
  "immutableReferences": {},
  "source": "// SPDX-License-Identifier: MIT \r\npragma solidity >=0.4.22 <0.9.0;\r\n\r\nimport \"./IRollable.sol\";\r\n\r\n\r\ncontract Role is IRollable  {\r\n    \r\n    \r\n    mapping(uint256 => Rollable) private rollable_arr;\r\n    uint256 private len = 0;\r\n\r\n    function find(address _address) public view returns (uint256) {\r\n        require(len > 0);\r\n        for (uint256 i = 1; i <= len; i++) {\r\n            if (rollable_arr[i].addr == _address) return rollable_arr[i].id;\r\n        }\r\n        return 0;\r\n    }\r\n\r\n    function add(\r\n        address _address,\r\n        string memory _name,\r\n        string memory _place\r\n    ) public {\r\n        len++;\r\n        rollable_arr[len] = Rollable(_address, len, _name, _place);\r\n    }\r\n\r\n    function getLen() public view returns (uint256) {\r\n        return len;\r\n    }\r\n\r\n     function getElement(uint256 _id) public view returns (Rollable memory) {\r\n        return rollable_arr[_id];\r\n    }\r\n\r\n}\r\n",
  "sourcePath": "D:\\Blockchain_project\\PharmaceuticalSupplyChain\\contracts\\roles\\Role.sol",
  "compiler": {
    "name": "solc",
    "version": "0.8.21+commit.d9974bed.Emscripten.clang"
  },
  "schemaVersion": "3.4.16",
  "updatedAt": "2023-12-03T11:01:38.609Z",
  "devdoc": {
    "kind": "dev",
    "methods": {},
    "version": 1
  },
  "userdoc": {
    "kind": "user",
    "methods": {},
    "version": 1
  }
}